{
  "_format": "hh-sol-artifact-1",
  "contractName": "AirDropV1",
  "sourceName": "contracts/AirDropV1.sol",
  "abi": [
    {
      "anonymous": false,
      "inputs": [
        {
          "indexed": true,
          "internalType": "bytes32",
          "name": "merkleRoot",
          "type": "bytes32"
        },
        {
          "indexed": true,
          "internalType": "address",
          "name": "rewardToken",
          "type": "address"
        },
        {
          "indexed": false,
          "internalType": "uint256",
          "name": "rewardAmount",
          "type": "uint256"
        }
      ],
      "name": "AirDropCreated",
      "type": "event"
    },
    {
      "anonymous": false,
      "inputs": [
        {
          "indexed": true,
          "internalType": "address",
          "name": "previousOwner",
          "type": "address"
        },
        {
          "indexed": true,
          "internalType": "address",
          "name": "newOwner",
          "type": "address"
        }
      ],
      "name": "OwnershipTransferred",
      "type": "event"
    },
    {
      "anonymous": false,
      "inputs": [
        {
          "indexed": true,
          "internalType": "bytes32",
          "name": "merkleRoot",
          "type": "bytes32"
        },
        {
          "indexed": true,
          "internalType": "address",
          "name": "account",
          "type": "address"
        }
      ],
      "name": "RewardClaimed",
      "type": "event"
    },
    {
      "inputs": [
        {
          "internalType": "address",
          "name": "account_",
          "type": "address"
        },
        {
          "internalType": "bytes32[]",
          "name": "merkleProof_",
          "type": "bytes32[]"
        }
      ],
      "name": "claimReward",
      "outputs": [],
      "stateMutability": "nonpayable",
      "type": "function"
    },
    {
      "inputs": [
        {
          "internalType": "address",
          "name": "rewardToken_",
          "type": "address"
        },
        {
          "internalType": "uint256",
          "name": "rewardAmount_",
          "type": "uint256"
        },
        {
          "internalType": "bytes32",
          "name": "merkleRoot_",
          "type": "bytes32"
        }
      ],
      "name": "create_airdrop",
      "outputs": [],
      "stateMutability": "nonpayable",
      "type": "function"
    },
    {
      "inputs": [],
      "name": "getMerkleRoot",
      "outputs": [
        {
          "internalType": "bytes32",
          "name": "",
          "type": "bytes32"
        }
      ],
      "stateMutability": "view",
      "type": "function"
    },
    {
      "inputs": [
        {
          "internalType": "bytes32",
          "name": "",
          "type": "bytes32"
        },
        {
          "internalType": "address",
          "name": "",
          "type": "address"
        }
      ],
      "name": "isUserClaimed",
      "outputs": [
        {
          "internalType": "bool",
          "name": "",
          "type": "bool"
        }
      ],
      "stateMutability": "view",
      "type": "function"
    },
    {
      "inputs": [
        {
          "internalType": "bytes32",
          "name": "leaf_",
          "type": "bytes32"
        },
        {
          "internalType": "bytes32[]",
          "name": "merkleProof_",
          "type": "bytes32[]"
        }
      ],
      "name": "isWhitelisted",
      "outputs": [
        {
          "internalType": "bool",
          "name": "",
          "type": "bool"
        }
      ],
      "stateMutability": "view",
      "type": "function"
    },
    {
      "inputs": [
        {
          "internalType": "address",
          "name": "user_",
          "type": "address"
        },
        {
          "internalType": "bytes32[]",
          "name": "merkleProof_",
          "type": "bytes32[]"
        }
      ],
      "name": "isWhitelistedUser",
      "outputs": [
        {
          "internalType": "bool",
          "name": "",
          "type": "bool"
        }
      ],
      "stateMutability": "view",
      "type": "function"
    },
    {
      "inputs": [],
      "name": "owner",
      "outputs": [
        {
          "internalType": "address",
          "name": "",
          "type": "address"
        }
      ],
      "stateMutability": "view",
      "type": "function"
    },
    {
      "inputs": [],
      "name": "renounceOwnership",
      "outputs": [],
      "stateMutability": "nonpayable",
      "type": "function"
    },
    {
      "inputs": [],
      "name": "rewardAmount",
      "outputs": [
        {
          "internalType": "uint256",
          "name": "",
          "type": "uint256"
        }
      ],
      "stateMutability": "view",
      "type": "function"
    },
    {
      "inputs": [],
      "name": "rewardToken",
      "outputs": [
        {
          "internalType": "address",
          "name": "",
          "type": "address"
        }
      ],
      "stateMutability": "view",
      "type": "function"
    },
    {
      "inputs": [
        {
          "internalType": "bytes32",
          "name": "merkleRoot_",
          "type": "bytes32"
        }
      ],
      "name": "setMerkleRoot",
      "outputs": [],
      "stateMutability": "nonpayable",
      "type": "function"
    },
    {
      "inputs": [
        {
          "internalType": "address",
          "name": "newOwner",
          "type": "address"
        }
      ],
      "name": "transferOwnership",
      "outputs": [],
      "stateMutability": "nonpayable",
      "type": "function"
    }
  ],
  "bytecode": "0x608060405234801561001057600080fd5b5061001a3361001f565b610071565b600180546001600160a01b038381166001600160a01b0319831681179093556040519116919082907f8be0079c531659141344cd1fd0a4f28419497f9722a3daafe3b4186f6b6457e090600090a35050565b610bd1806100806000396000f3fe608060405234801561001057600080fd5b50600436106100b45760003560e01c8063a188491c11610071578063a188491c14610148578063b0386f291461015b578063b45f92191461016e578063f2fde38b1461019c578063f7b2a7be146101af578063f7c618c1146101b857600080fd5b806349590657146100b957806368b5405c146100d0578063715018a6146100e55780637cb64759146100ed5780637ea25896146101005780638da5cb5b14610123575b600080fd5b6000545b6040519081526020015b60405180910390f35b6100e36100de366004610964565b6101cb565b005b6100e3610231565b6100e36100fb366004610997565b610245565b61011361010e3660046109fc565b610259565b60405190151581526020016100c7565b6001546001600160a01b03165b6040516001600160a01b0390911681526020016100c7565b610113610156366004610a48565b610273565b6100e3610169366004610a48565b6102b6565b61011361017c366004610a82565b600460209081526000928352604080842090915290825290205460ff1681565b6100e36101aa366004610aae565b610441565b6100bd60035481565b600254610130906001600160a01b031681565b6101d481600055565b600280546001600160a01b0319166001600160a01b038516908117909155600383905560405183815282907f8368ccf32661add9c4e31144663f2ce887fb9e8fc8d8c4f5c2e5c66b75d980889060200160405180910390a3505050565b6102396104b7565b6102436000610511565b565b61024d6104b7565b61025681600055565b50565b6000805461026b908490849087610563565b949350505050565b6040516bffffffffffffffffffffffff19606085901b16602082015260009061026b90603401604051602081830303815290604052805190602001208484610259565b8282826102c4838383610273565b6103205760405162461bcd60e51b815260206004820152602260248201527f4d65726b6c6557686974656c69737465643a206e6f742077686974656c697374604482015261195960f21b60648201526084015b60405180910390fd5b856004600061032e60005490565b8152602080820192909252604090810160009081206001600160a01b038516825290925290205460ff16156103b85760405162461bcd60e51b815260206004820152602a60248201527f41697244726f7056313a206163636f756e7420616c726561647920636c61696d60448201526932b2103932bbb0b9321760b11b6064820152608401610317565b6000805460008181526004602090815260408083206001600160a01b03808e1685529252909120805460ff19166001179055600254600354929350610401929116908a9061057b565b6040516001600160a01b0389169082907fb28d276399f08f8991810bacda244e0bee8ef88ac7440413f0d9a29283a027cd90600090a35050505050505050565b6104496104b7565b6001600160a01b0381166104ae5760405162461bcd60e51b815260206004820152602660248201527f4f776e61626c653a206e6577206f776e657220697320746865207a65726f206160448201526564647265737360d01b6064820152608401610317565b61025681610511565b6001546001600160a01b031633146102435760405162461bcd60e51b815260206004820181905260248201527f4f776e61626c653a2063616c6c6572206973206e6f7420746865206f776e65726044820152606401610317565b600180546001600160a01b038381166001600160a01b0319831681179093556040519116919082907f8be0079c531659141344cd1fd0a4f28419497f9722a3daafe3b4186f6b6457e090600090a35050565b600082610571868685610680565b1495945050505050565b73eeeeeeeeeeeeeeeeeeeeeeeeeeeeeeeeeeeeeeed196001600160a01b03841601610667576000826001600160a01b03168260405160006040518083038185875af1925050503d80600081146105ed576040519150601f19603f3d011682016040523d82523d6000602084013e6105f2565b606091505b50509050806106615760405162461bcd60e51b815260206004820152603560248201527f546f6b656e42616c616e63653a205472616e7366657272696e67206f66206e616044820152743a34bb329031bab93932b731bc903330b4b632b21760591b6064820152608401610317565b50505050565b61067b6001600160a01b03841683836106cc565b505050565b600081815b848110156106c3576106af828787848181106106a3576106a3610ac9565b9050602002013561071e565b9150806106bb81610adf565b915050610685565b50949350505050565b604080516001600160a01b038416602482015260448082018490528251808303909101815260649091019091526020810180516001600160e01b031663a9059cbb60e01b17905261067b908490610750565b600081831061073a576000828152602084905260409020610749565b60008381526020839052604090205b9392505050565b60006107a5826040518060400160405280602081526020017f5361666545524332303a206c6f772d6c6576656c2063616c6c206661696c6564815250856001600160a01b03166108259092919063ffffffff16565b90508051600014806107c65750808060200190518101906107c69190610b06565b61067b5760405162461bcd60e51b815260206004820152602a60248201527f5361666545524332303a204552433230206f7065726174696f6e20646964206e6044820152691bdd081cdd58d8d9595960b21b6064820152608401610317565b606061026b848460008585600080866001600160a01b0316858760405161084c9190610b4c565b60006040518083038185875af1925050503d8060008114610889576040519150601f19603f3d011682016040523d82523d6000602084013e61088e565b606091505b509150915061089f878383876108aa565b979650505050505050565b60608315610919578251600003610912576001600160a01b0385163b6109125760405162461bcd60e51b815260206004820152601d60248201527f416464726573733a2063616c6c20746f206e6f6e2d636f6e74726163740000006044820152606401610317565b508161026b565b61026b838381511561092e5781518083602001fd5b8060405162461bcd60e51b81526004016103179190610b68565b80356001600160a01b038116811461095f57600080fd5b919050565b60008060006060848603121561097957600080fd5b61098284610948565b95602085013595506040909401359392505050565b6000602082840312156109a957600080fd5b5035919050565b60008083601f8401126109c257600080fd5b50813567ffffffffffffffff8111156109da57600080fd5b6020830191508360208260051b85010111156109f557600080fd5b9250929050565b600080600060408486031215610a1157600080fd5b83359250602084013567ffffffffffffffff811115610a2f57600080fd5b610a3b868287016109b0565b9497909650939450505050565b600080600060408486031215610a5d57600080fd5b610a6684610948565b9250602084013567ffffffffffffffff811115610a2f57600080fd5b60008060408385031215610a9557600080fd5b82359150610aa560208401610948565b90509250929050565b600060208284031215610ac057600080fd5b61074982610948565b634e487b7160e01b600052603260045260246000fd5b600060018201610aff57634e487b7160e01b600052601160045260246000fd5b5060010190565b600060208284031215610b1857600080fd5b8151801515811461074957600080fd5b60005b83811015610b43578181015183820152602001610b2b565b50506000910152565b60008251610b5e818460208701610b28565b9190910192915050565b6020815260008251806020840152610b87816040850160208701610b28565b601f01601f1916919091016040019291505056fea264697066735822122043ed18a050eeb5e1bfb185cff16db2136c4ea653e7ae7bb092c545462d69ad6864736f6c63430008130033",
  "linkReferences": {},
  "deployedLinkReferences": {}
}