{
  "_format": "hh-sol-artifact-1",
  "contractName": "AirDropV2",
  "sourceName": "contracts/AirDropV2.sol",
  "abi": [
    {
      "anonymous": false,
      "inputs": [
        {
          "indexed": true,
          "internalType": "uint256",
          "name": "campaignId",
          "type": "uint256"
        },
        {
          "components": [
            {
              "internalType": "uint256",
              "name": "id",
              "type": "uint256"
            },
            {
              "internalType": "address",
              "name": "rewardToken",
              "type": "address"
            },
            {
              "internalType": "uint256",
              "name": "rewardAmount",
              "type": "uint256"
            },
            {
              "internalType": "uint256",
              "name": "startTimestamp",
              "type": "uint256"
            },
            {
              "internalType": "uint256",
              "name": "endTimestamp",
              "type": "uint256"
            },
            {
              "internalType": "bytes32",
              "name": "merkleRoot",
              "type": "bytes32"
            }
          ],
          "indexed": false,
          "internalType": "struct ACampaignAirDrop.Campaign",
          "name": "campaign",
          "type": "tuple"
        }
      ],
      "name": "CampaignSet",
      "type": "event"
    },
    {
      "anonymous": false,
      "inputs": [
        {
          "indexed": false,
          "internalType": "uint8",
          "name": "version",
          "type": "uint8"
        }
      ],
      "name": "Initialized",
      "type": "event"
    },
    {
      "anonymous": false,
      "inputs": [
        {
          "indexed": true,
          "internalType": "uint256",
          "name": "campaignId",
          "type": "uint256"
        },
        {
          "indexed": true,
          "internalType": "address",
          "name": "account",
          "type": "address"
        }
      ],
      "name": "RewardClaimed",
      "type": "event"
    },
    {
      "inputs": [],
      "name": "AIR_DROP_V2_RESOURCE",
      "outputs": [
        {
          "internalType": "string",
          "name": "",
          "type": "string"
        }
      ],
      "stateMutability": "view",
      "type": "function"
    },
    {
      "inputs": [
        {
          "internalType": "address",
          "name": "votingContract_",
          "type": "address"
        }
      ],
      "name": "__AirDropV2_init",
      "outputs": [],
      "stateMutability": "nonpayable",
      "type": "function"
    },
    {
      "inputs": [],
      "name": "campaignCount",
      "outputs": [
        {
          "internalType": "uint256",
          "name": "",
          "type": "uint256"
        }
      ],
      "stateMutability": "view",
      "type": "function"
    },
    {
      "inputs": [
        {
          "internalType": "uint256",
          "name": "",
          "type": "uint256"
        }
      ],
      "name": "campaigns",
      "outputs": [
        {
          "internalType": "uint256",
          "name": "id",
          "type": "uint256"
        },
        {
          "internalType": "address",
          "name": "rewardToken",
          "type": "address"
        },
        {
          "internalType": "uint256",
          "name": "rewardAmount",
          "type": "uint256"
        },
        {
          "internalType": "uint256",
          "name": "startTimestamp",
          "type": "uint256"
        },
        {
          "internalType": "uint256",
          "name": "endTimestamp",
          "type": "uint256"
        },
        {
          "internalType": "bytes32",
          "name": "merkleRoot",
          "type": "bytes32"
        }
      ],
      "stateMutability": "view",
      "type": "function"
    },
    {
      "inputs": [
        {
          "internalType": "address",
          "name": "",
          "type": "address"
        },
        {
          "internalType": "string",
          "name": "",
          "type": "string"
        }
      ],
      "name": "checkPermission",
      "outputs": [
        {
          "internalType": "bool",
          "name": "",
          "type": "bool"
        }
      ],
      "stateMutability": "pure",
      "type": "function"
    },
    {
      "inputs": [
        {
          "internalType": "uint256",
          "name": "campaignId_",
          "type": "uint256"
        },
        {
          "internalType": "address",
          "name": "account_",
          "type": "address"
        },
        {
          "internalType": "bytes32[]",
          "name": "merkleProof_",
          "type": "bytes32[]"
        }
      ],
      "name": "claimReward",
      "outputs": [],
      "stateMutability": "nonpayable",
      "type": "function"
    },
    {
      "inputs": [
        {
          "internalType": "address",
          "name": "rewardToken_",
          "type": "address"
        },
        {
          "internalType": "uint256",
          "name": "rewardAmount_",
          "type": "uint256"
        },
        {
          "internalType": "bytes32",
          "name": "merkleRoot_",
          "type": "bytes32"
        },
        {
          "internalType": "uint256",
          "name": "startTimestamp_",
          "type": "uint256"
        },
        {
          "internalType": "uint256",
          "name": "endTimestamp_",
          "type": "uint256"
        }
      ],
      "name": "createCampaign",
      "outputs": [
        {
          "internalType": "uint256",
          "name": "",
          "type": "uint256"
        }
      ],
      "stateMutability": "nonpayable",
      "type": "function"
    },
    {
      "inputs": [],
      "name": "getResource",
      "outputs": [
        {
          "internalType": "string",
          "name": "",
          "type": "string"
        }
      ],
      "stateMutability": "pure",
      "type": "function"
    },
    {
      "inputs": [
        {
          "internalType": "uint256",
          "name": "",
          "type": "uint256"
        },
        {
          "internalType": "address",
          "name": "",
          "type": "address"
        }
      ],
      "name": "isUserClaimed",
      "outputs": [
        {
          "internalType": "bool",
          "name": "",
          "type": "bool"
        }
      ],
      "stateMutability": "view",
      "type": "function"
    },
    {
      "inputs": [
        {
          "internalType": "uint256",
          "name": "campaignId_",
          "type": "uint256"
        },
        {
          "internalType": "bytes32",
          "name": "leaf_",
          "type": "bytes32"
        },
        {
          "internalType": "bytes32[]",
          "name": "merkleProof_",
          "type": "bytes32[]"
        }
      ],
      "name": "isWhitelisted",
      "outputs": [
        {
          "internalType": "bool",
          "name": "",
          "type": "bool"
        }
      ],
      "stateMutability": "view",
      "type": "function"
    },
    {
      "inputs": [
        {
          "internalType": "uint256",
          "name": "campaignId_",
          "type": "uint256"
        },
        {
          "internalType": "address",
          "name": "user_",
          "type": "address"
        },
        {
          "internalType": "bytes32[]",
          "name": "merkleProof_",
          "type": "bytes32[]"
        }
      ],
      "name": "isWhitelistedUser",
      "outputs": [
        {
          "internalType": "bool",
          "name": "",
          "type": "bool"
        }
      ],
      "stateMutability": "view",
      "type": "function"
    },
    {
      "inputs": [],
      "name": "votingContract",
      "outputs": [
        {
          "internalType": "address",
          "name": "",
          "type": "address"
        }
      ],
      "stateMutability": "view",
      "type": "function"
    }
  ],
  "bytecode": "0x608060405234801561001057600080fd5b5061120c806100206000396000f3fe608060405234801561001057600080fd5b50600436106100b45760003560e01c8063921473821161007157806392147382146101da57806395ab7634146101ed57806396826c5314610200578063bb65dc831461022e578063c1fc006a14610255578063d8ad4e1c1461028657600080fd5b8063141961bc146100b95780633778b64d146101415780633917caf2146101785780636a25f2691461018d5780637274e30d146101b0578063743ede76146101c7575b600080fd5b6101076100c7366004610ee2565b60016020819052600091825260409091208054918101546002820154600383015460048401546005909401546001600160a01b0390931693919290919086565b604080519687526001600160a01b039095166020870152938501929092526060840152608083015260a082015260c0015b60405180910390f35b61016b6040518060400160405280600b81526020016a20a4a92fa22927a82fab1960a91b81525081565b6040516101389190610f1f565b61018b610186366004610fba565b61029d565b005b6101a061019b366004610fba565b6102af565b6040519015158152602001610138565b6101b960005481565b604051908152602001610138565b6101a06101d5366004611014565b6102ff565b61018b6101e836600461104f565b61031f565b6101b96101fb36600461106a565b610450565b6101a061020e3660046110ac565b600260209081526000928352604080842090915290825290205460ff1681565b60408051808201909152600b81526a20a4a92fa22927a82fab1960a91b602082015261016b565b60035461026e906201000090046001600160a01b031681565b6040516001600160a01b039091168152602001610138565b6101a06102943660046110d8565b60019392505050565b6102a9848484846104e0565b50505050565b6040516bffffffffffffffffffffffff19606085901b1660208201526000906102f49086906034016040516020818303038152906040528051906020012085856102ff565b90505b949350505050565b6000848152600160205260408120600501546102f490849084908761080e565b600354610100900460ff161580801561033f5750600354600160ff909116105b806103595750303b158015610359575060035460ff166001145b6103c15760405162461bcd60e51b815260206004820152602e60248201527f496e697469616c697a61626c653a20636f6e747261637420697320616c72656160448201526d191e481a5b9a5d1a585b1a5e995960921b60648201526084015b60405180910390fd5b6003805460ff1916600117905580156103e4576003805461ff0019166101001790555b6003805462010000600160b01b031916620100006001600160a01b03851602179055801561044c576003805461ff0019169055604051600181527f7f26b83ff96e1f2b6a682f133852f6798a09c465da95921460cefb38474024989060200160405180910390a15b5050565b6003546000906201000090046001600160a01b031633146104c95760405162461bcd60e51b815260206004820152602d60248201527f41697244726f7056323a2063616c6c6572206973206e6f742074686520766f7460448201526c34b7339031b7b73a3930b1ba1760991b60648201526084016103b8565b6104d68686858588610826565b9695505050505050565b6000848152600160205260408120548591036105515760405162461bcd60e51b815260206004820152602a60248201527f4143616d706169676e41697244726f703a2063616d706169676e20646f6573206044820152693737ba1032bc34b9ba1760b11b60648201526084016103b8565b60008581526002602090815260408083206001600160a01b03881684529091529020548590859060ff16156105df5760405162461bcd60e51b815260206004820152602e60248201527f4143616d706169676e41697244726f703a207573657220616c7265616479206360448201526d3630b4b6b2b2103932bbb0b9321760911b60648201526084016103b8565b868686866105ef848484846102af565b61064e5760405162461bcd60e51b815260206004820152602a60248201527f4143616d706169676e41697244726f703a2075736572206973206e6f7420776860448201526934ba32b634b9ba32b21760b11b60648201526084016103b8565b60008b8152600160205260409020600301544210156106c65760405162461bcd60e51b815260206004820152602e60248201527f4143616d706169676e41697244726f703a2063616d706169676e206973206e6f60448201526d3a1039ba30b93a32b2103cb2ba1760911b60648201526084016103b8565b60008b81526001602052604090206004015442111561073d5760405162461bcd60e51b815260206004820152602d60248201527f4143616d706169676e41697244726f703a2063616d706169676e20686173206160448201526c363932b0b23c9032b73232b21760991b60648201526084016103b8565b6001600260008d815260200190815260200160002060008c6001600160a01b03166001600160a01b0316815260200190815260200160002060006101000a81548160ff0219169083151502179055506000600160008d815260200190815260200160002090506107c98160010160009054906101000a90046001600160a01b03168c8360020154610857565b80546040516001600160a01b038d1691907f5dd59f4285b36241394b73f8f7ae03d0290b030a86803cf2562ecf33eeb617bd90600090a3505050505050505050505050565b60008261081c868685610956565b1495945050505050565b60008060008081546108379061115b565b9182905550905061084c8188888888886109a2565b509695505050505050565b73eeeeeeeeeeeeeeeeeeeeeeeeeeeeeeeeeeeeeeed196001600160a01b0384160161093d576000826001600160a01b03168260405160006040518083038185875af1925050503d80600081146108c9576040519150601f19603f3d011682016040523d82523d6000602084013e6108ce565b606091505b50509050806102a95760405162461bcd60e51b815260206004820152603560248201527f546f6b656e42616c616e63653a205472616e7366657272696e67206f66206e616044820152743a34bb329031bab93932b731bc903330b4b632b21760591b60648201526084016103b8565b6109516001600160a01b0384168383610a61565b505050565b600081815b84811015610999576109858287878481811061097957610979611182565b90506020020135610ab3565b9150806109918161115b565b91505061095b565b50949350505050565b60006109b18686868686610ae5565b6000878152600160208181526040928390208a815591820180546001600160a01b0319166001600160a01b038b169081179091556002830189905560038301889055600483018790556005830186905583518b815291820152918201879052606082018690526080820185905260a082018490529088907f76c63a84d266ca3b59e504a21147cd4e1b777747bbe163d4eeed9f2be951f11a9060c00160405180910390a250959695505050505050565b604080516001600160a01b038416602482015260448082018490528251808303909101815260649091019091526020810180516001600160e01b031663a9059cbb60e01b179052610951908490610cea565b6000818310610acf576000828152602084905260409020610ade565b60008381526020839052604090205b9392505050565b42831015610b515760405162461bcd60e51b815260206004820152603360248201527f4143616d706169676e41697244726f703a2073746172742074696d65206d75736044820152723a1031329034b7103a343290333aba3ab9329760691b60648201526084016103b8565b828211610bbd5760405162461bcd60e51b815260206004820152603460248201527f4143616d706169676e41697244726f703a20656e642074696d65206d7573742060448201527331329030b33a32b91039ba30b93a103a34b6b29760611b60648201526084016103b8565b80610c195760405162461bcd60e51b815260206004820152602660248201527f4143616d706169676e41697244726f703a206d65726b6c6520726f6f74206973604482015265103d32b9379760d11b60648201526084016103b8565b6001600160a01b038516610c825760405162461bcd60e51b815260206004820152602a60248201527f4143616d706169676e41697244726f703a2072657761726420746f6b656e2069604482015269399034b73b30b634b21760b11b60648201526084016103b8565b60008411610ce35760405162461bcd60e51b815260206004820152602860248201527f4143616d706169676e41697244726f703a2072657761726420616d6f756e742060448201526734b9903d32b9379760c11b60648201526084016103b8565b5050505050565b6000610d3f826040518060400160405280602081526020017f5361666545524332303a206c6f772d6c6576656c2063616c6c206661696c6564815250856001600160a01b0316610dbf9092919063ffffffff16565b9050805160001480610d60575080806020019051810190610d609190611198565b6109515760405162461bcd60e51b815260206004820152602a60248201527f5361666545524332303a204552433230206f7065726174696f6e20646964206e6044820152691bdd081cdd58d8d9595960b21b60648201526084016103b8565b60606102f7848460008585600080866001600160a01b03168587604051610de691906111ba565b60006040518083038185875af1925050503d8060008114610e23576040519150601f19603f3d011682016040523d82523d6000602084013e610e28565b606091505b5091509150610e3987838387610e44565b979650505050505050565b60608315610eb3578251600003610eac576001600160a01b0385163b610eac5760405162461bcd60e51b815260206004820152601d60248201527f416464726573733a2063616c6c20746f206e6f6e2d636f6e747261637400000060448201526064016103b8565b50816102f7565b6102f78383815115610ec85781518083602001fd5b8060405162461bcd60e51b81526004016103b89190610f1f565b600060208284031215610ef457600080fd5b5035919050565b60005b83811015610f16578181015183820152602001610efe565b50506000910152565b6020815260008251806020840152610f3e816040850160208701610efb565b601f01601f19169190910160400192915050565b80356001600160a01b0381168114610f6957600080fd5b919050565b60008083601f840112610f8057600080fd5b50813567ffffffffffffffff811115610f9857600080fd5b6020830191508360208260051b8501011115610fb357600080fd5b9250929050565b60008060008060608587031215610fd057600080fd5b84359350610fe060208601610f52565b9250604085013567ffffffffffffffff811115610ffc57600080fd5b61100887828801610f6e565b95989497509550505050565b6000806000806060858703121561102a57600080fd5b8435935060208501359250604085013567ffffffffffffffff811115610ffc57600080fd5b60006020828403121561106157600080fd5b610ade82610f52565b600080600080600060a0868803121561108257600080fd5b61108b86610f52565b97602087013597506040870135966060810135965060800135945092505050565b600080604083850312156110bf57600080fd5b823591506110cf60208401610f52565b90509250929050565b6000806000604084860312156110ed57600080fd5b6110f684610f52565b9250602084013567ffffffffffffffff8082111561111357600080fd5b818601915086601f83011261112757600080fd5b81358181111561113657600080fd5b87602082850101111561114857600080fd5b6020830194508093505050509250925092565b60006001820161117b57634e487b7160e01b600052601160045260246000fd5b5060010190565b634e487b7160e01b600052603260045260246000fd5b6000602082840312156111aa57600080fd5b81518015158114610ade57600080fd5b600082516111cc818460208701610efb565b919091019291505056fea2646970667358221220a80582d706a6127ef6bf7dd4d5cb4dde2262e696036412ae15406ae89875655e64736f6c63430008130033",
  "linkReferences": {},
  "deployedLinkReferences": {}
}